S12380007E8050436F70797269676874202863292031393933206279204461766964204226
S12380202E205068696C697073656E204C6963656E7365642062792053686F7742697A20FA
S123804050697A7A612054696D652C20496E632E0FFC0426C30001FD0426CEAD1DFF01CE45
S12380607F01C7CC01C6FD013E7F00B07F004E7F00B67F004D8603B710A818CE008018096A
S123808026FC8611B710A8C610BDF995B6180484BFB7180486FF97ACBD86C4BD99A6BD8C97
S12380A03CBD87E8BD87BCBD8C7EBD8D29BD8BC0BD8BEE0EBDA25EB6040F810126037EA27D
S12380C075FC040B1A83197B264F5FD762BDF9C5BDA341B6040081072742252981062725F6
S12380E0CC0000FD040DCC00C8DD1BDC1B270BBDF94524F7814426F32005BD9F1E251ABD5E
S12381009EAFBD9E928639B70408BDA1D5BDAB17B6F7C0B7045C7EF8007E81197F00797F64
S1238120007CBD0408BD8013C6FDBD86E7C6DFBD8748BD8791BD9AF7BD9C517F0062BD9984
S1238140D92416BD8DE4496E76616C696420435055A186537E82A420FEBDA3547F00AA7D75
S123816000002715BD8DE452414D2074657374206661696C6564A12044BD8DE433324B2049
S123818052414D204FCB7D045C2608CC520FBD8DB52006CC430FBD8DB5BD8DDD524F4D2012
S12381A043686B73756DBDBD975FC602BD8C02BD9A27BD9ECCBD9B19C602BD8C02F6102D71
S12381C0C4DFF7102DBD9AF7C6FDBD86E7BD8791C600D762BDF9C5BD8DE4204379626572F7
S12381E0737461722076312EB6BDA2DF2411CC520FBD8DB57D042A2706CC4B0FBD8DB5BDBD
S12382008D03FC029C1A8300012615BD8DDD204461766527732073797374656D20A020470A
S12382201A8303E82D1B1A83044B2215BD8DDD2020205350542053747564696F2020A02031
S123824026CC0E0CDDADFC040D1A8302582205CC0E09DDADC629CE0E00A6004A085C3CBDD4
S12382608DB5389CAD26F2BD9C517F005B7F005A7F005E7F0060BD9B1996602706BDA97C90
S12382807EF800B6180484062608BD9CF1C632BD8C22BD8E95810D26037E9292BDF94525D4
S12382A0037E8333814426037EA366815326F2BDF9D80A0D456E74657220736563757269D4
S12382C0747920636F64653AA00FBDA2EA0E2561BDF9D80A0D454550524F4D2073657269EC
S12382E0616C206E756D6265722070726F6772616D6D696E6720656E61626C65642E0A0D11
S1238300506C65617365205245534554207468652070726F636573736F7220746F20636F06
S12383206E74696E75650A8D8601B7040F86DB970720FE96AA2712DC1B260ED662C820D706
S123834062BDF9C5CC0032DD1BBD86A424037E8276F6102DCA20F7102D7F00AAD662C4DF6D
S1238360D762BDF9C5C602BD8C02967C272D967F974ED681BD874896828501260696AC845F
S1238380FD200496AC8A0297ACB71806B618048A20B7180484DFB718042014FC040D1A836F
S12383A0FDE82206C30001FD040DC6F7BD86E77F00307F00317F0032BD9B19BD86A425EF77
S12383C0967927177F007996B5810126077F00B58601977C860197AA7E9A7FBD8DE42020BF
S12383E020546170652073746172742020A0D662CA80D762BDF9C5C6FBBD86E7BD8DCF3631
S123840038484331312050726F74EFBD8DD66462F0C603BD8C027D007C2715D680D762BD14
S1238420F9C5D67DD778D67EF7108A7F007C201DBD8D03BD9D1824087D00B827F37E9A6009
S12384407D00B827EB7F00307F00312000964926037E85A47F004981312608BDA326BD8D2B
S12384604220EA81322608BDA326BD8D3520DE81542608BDA326BD8D4220D2815A261CBDE7
S1238480A31EBD8E957F00327F00317F0030BD99A6D67BCA0CBD87487E81BD814226037E52
S12384A0983C814D26037E9824814526037E9802815826057E993F2094814626037E997126
S12384C0814726037E997B814826037E9985814926037E998F815326037E97BA815926031F
S12384E07E99D2815726037E9AA481412617BD9D1825097F00307F00317E85A47F00307FFF
S123850000317E9A7F814B260BBD9D1825037E85A47E9A7F814A2607860197AF7E983C8122
S12385204E260BB6108A8A02B7108A7E844D814F2606BD9D187E844D81502606BD9D187E92
S1238540844D8151260BB6108A8A04B7108A7E844D81552607C601D7B67E844D814C261913
S12385607F0049BD9D18250EBDAAE8BDAB562406BDAB25BDAB467E844D8152261A7F0049EE
S1238580BD9D18250FBDAAE8BDAB56250786FFA700BDAAE87E844D814426097F0049BDAB0A
S12385A0AE7E844D7D007526567D007926517D00302607965B27487F005BCC0064DD23DCBF
S12385C0232714BD9B19B6180488FF8406810626EE7F00307E86807F0030D662C802D7622D
S12385E0BDF9C5C402270DBDAA18C61EBD8C227F0030200BBDAA1DC61EBD8C227F0030BD1B
S12386009B19B6100A8410270BB6180488FF84078106261C7D007626177D00752612D662CD
S1238620C4FCD762BDF9C5BDAA13BDAA1D7E9A607D00312607965A27477F005ACC0064DD2D
S123864023DC232713BD9B19B6180488FF8406810626EE7F003120287F0031D662C801D74B
S123866062BDF9C5C401270DBDAA0CC61EBD8C227F0031200BBDAA13C61EBD8C227F00310A
S1238680BD86A4251C7F004EBD99A6BD86C45FD762BDF9C5C6FDBD86E7C604BD8C027E84C7
S12386A07F7E844DBD9B197F002386199724B6100A848027020D39B6100A848026F796248D
S12386C026F50C39CE10808630A701A70386FFA700A7028634A701A7036F006F02080808F7
S12386E0088C10A42FE13936BD9B1996ACC1FB260484FE200EC1F7260484BF2006C1FD2637
S12387000284F797ACB71806BD873A967A8401977AC4FEDA7AF71806BD8775C632BD8C2255
S1238720C6FEDA7AF71806D77ABD877596AC8A4997ACB71806BD873A3239B618048A20B7B5
S1238740180484DFB7180439363796AC8A3084FDC52026028A02C504260284EFC5082602AE
S123876084DFB7180697ACBD873A33F71806D77BBD87833239B618078A38B7180784F7B791
S1238780180739B618058A38B7180584F7B7180539967A84FE3696AC8A0497AC32977AB7B7
S12387A01806BD877596ACB71806BD873A39967A8A013696AC84FB97AC3220E1CE87D2A63B
S12387C00081FF270C08B7180DA60008B7180D20EE39098A01000C180D0004440E63056842
S12387E00B5603C10F00FFFFCEF857A60081FF270C08B7180CA60008B7180C20EE20160914
S12388008A01100C180D0004040E6305680B0103C10F00FFFFCE883EFF0128867EB7012726
S1238820CE8832FF0101B70100B6102D8A20B7102D39B6102EB6102F7C00487E886286018D
S1238840B7180CB6180C8470261F860AB7180CB6180C84C02622B6180C4424357C0048B664
S1238860180EBDF96F974A202DB6180E8630B7180C8607BDF96F0C3B8607BDF96F860EB718
S1238880180C8643B7180CB6180E8607BDF96F0D3BB6180E0C3B847F8124274481252740F3
S12388A08120273A813025359712964D810225097F004D9612974920247D004E271F8678C3
S12388C097639764961281402407974C7F004D200C81602408974B7F004DBD88E53B20FDF3
S12388E07C004D20F9D64B964C7D045C270D813C2509813F2205BD899320651A8330482712
S1238900791A833148275A1A83344D276D1A83354D274E1A83364D27611A83374D2742CEFD
S12389201080D64CC0305458583AD64BC1502430C14723020808C040C4074F0D495D270498
S1238940495A26FC9750964C84012708A6009A50A700200C965088FF9750A6009450A700E9
S123896039B610828A01B71082B6108A8A20B7108AB6108E8A20B7108E39B6108284FEB746
S12389801082B6108A84DFB7108AB6108E84DFB7108E393C813D2205CEF7802003CEF7A00A
S12389A0C040583A813C2734813D270A813E274B813F27153839B61098AA00B7109808B657
S12389C0109AAA00B7109A3839B6109CAA00B7109C08B6109EAA00B7109E3839E600C8FF65
S12389E0D712B610989412B7109808E600C8FFD712B6109A9412B7109A3839E600C8FFD72D
S1238A0012B6109C9412B7109C08E600C8FFD712B6109E9412B7109E38393C8604B5180DB7
S1238A2027F9A60026037E8B2108815E261DA60008B70592A60008B70593A60008B70595F7
S1238A40A60008B70596BD8B2320D08140263B1AEE000808863097B118A600816425077C34
S1238A6000B1806420F53696B1BD8B3B863097B132810A25077C00B1800A20F53696B1BD5B
S1238A808B3B328B30BD8B3B2091817C26591AEE000808863097B118EC001A832710250854
S1238AA07C00B183271020F23696B1BD8B3B863097B1321A8303E825087C00B18303E82019
S1238AC0F23696B1BD8B3B863097B1321A83006425087C00B183006420F296B1BD8B3B86CC
S1238AE03097B1177E8A71817E2618E600C030081AEE00080818A6001808BD8B3B5A26F561
S1238B007E8A1B81252614CE0590CC1B5BED00864BA7026F03BD8A1A7E8A1BB7180F7E8A66
S1238B201B38393CCE0590CC1B5BED008648A707863BA7046F08BD8A1A3839368604B51819
S1238B400D27F932B7180F39BDA32EBD8DE44C6967687420446961676E6F737469E3BD8DF8
S1238B60DD4375727461696E73206F70656E696EE7C614BD8C30C6FFF71098F7109AF710DC
S1238B809CF7109EBDF9C5B618048A40B71804BD8DE420507265737320454E544552207419
S1238BA06FA0BD8DDD7475726E206C696768747320206F66E6BD8E95810D26F9BDA34139A5
S1238BC08680B71022CEABCCFF0119CEAD0CFF0116CEAD0CFF012E867EB70118B70115B79A
S1238BE0012D4F5FDD1BDD1DDD1FDD21DD2386C0B7102339B6100A88FF16D762BDF9C520FF
S1238C00F3393686643DDD23BD9B19DC2326F9323936863C9728C601BD8C0296284A26F4E2
S1238C203239364FDD23BD9B197D002426F832393686323DDD23DC2326FC323986FFB710A2
S1238C400186FFB71003B610028A02B710028638BD8C868638BD8C868606BD8C86860EBDDD
S1238C608C868601BD8C86CE00FF01010926FB39B6100284FDB710028A02B7100239CC05E5
S1238C8000DD46DD4439BD8CBDB71000B6100284F3B71002BD8C7039BD8CBDB71000B610F9
S1238CA00284FB8A0820EABD8CBDB6100284F78A0820DEBD8CBDB610028A0C20D43637C62F
S1238CC0FF5D271AB6100284F78A04B71002BD8C707F1001B610002B0886FFB71001333265
S1238CE0395A86FFB7100120D8BD8CBD8601BD8C8639BD8CBD8680BD8D14BD8CBD8680BDD0
S1238D008C8639BD8CBD86C0BD8D14BD8CBD86C0BD8C8639BD8C8686109714BD8CBD86204A
S1238D20BD8C987A001426F339860CBD8E4B39860EBD8E4B397F004A7F004318DE4686C09D
S1238D40200B7F004A7F004318DE46868018A700186F0118081808188C0580250418CE0553
S1238D6000C60F964A27FC7F004A5A271A81242716186F0018A70118081808188C058025FC
S1238D800418CE050020DC5D27198620186F0018A70118081808188C0580250418CE0500DD
S1238DA05A26E9186F00186F0118DF469619974E86019743393637C14F2213C12825030CFD
S1238DC0C9180CC98017BD8E4B3332BD8E703918DE468690201318DE4686D0200C18DE46D4
S1238DE086C0200518DE46868018A700186F0118081808188C0580250418CE050038DF17D0
S1238E00A60027362B17186F0018A7010818081808188C058025E918CE050020E3847F183A
S1238E206F0018A701186F02186F030818081808188C0580250418CE05003C86019743DCEE
S1238E4046186F00186F0118DF463918DE4618A700186F0118081808188C0580250418CE48
S1238E600500186F00186F018601974318DF463918DE46186F0018A70118081808188C0597
S1238E8080250418CE0500186F00186F018601974318DF4639963026099631261196322673
S1238EA019397F00307F00327F00318601397F00317F00307F00328602397F00327F00305B
S1238EC07F0031860D39B618048407972C78002C78002C78002C78002C78002CCE00008C64
S1238EE00003272478002C2512A62D810F241A6C2DA62D81022602A730200A6F2D2006A624
S1238F002D27026A2D0820D7398C000227026F2D20F3B6100A9751CE00008C0008272277E8
S1238F2000512510A652810F6C52A65281042602A75A200A6F522006A65227026A520820A5
S1238F40D9396F5220F8302E35312E30312E35322E30322E35332E303C96128001C6033D4B
S1238F60CE8F463AC62CA60008BD8DB55CC12F26F5383936BD8CF2C602BD8C303297B481E9
S1238F80032611BD8DE4436875636B202020A0CE9072204D81042611BD8DE44A617370655D
S1238FA0722020A0CE90DE203881052611BD8DE45061737175616C6CF9CE91452023810632
S1238FC02611BD8DE44D756E6368202020A0CE91BA200EBD8DE448656C656E2020A0CE928C
S1238FE02696B480034848974BBD9504974C810F260139810823088008D64BCB02D74B365D
S123900018DE46325F0D594A26FCD750D64BCE10803A86029712A6009850A7006D002716BD
S1239020864FC60CBD8DB5866EC60DBD8DB5CC200EBD8DB5200E8666C60DBD8DB58666C629
S12390400EBD8DB5D612BD8C30BD8E95810D271420C4810226C09612810627BA4C9712BDE6
S12390608F5820B2A6009A509850A70096B47E8F73394D6F7574682C48656164206C65660F
S1239080742C486561642072696768742C486561642075702C457965732072696768742CAD
S12390A04579656C6964732C52696768742068616E642C45796573206C6566742C4453396F
S12390C02C445331302C445331312C445331322C445331332C445331342C457869F44D6FCC
S12390E07574682C48656164206C6566742C486561642072696768742C4865616420757033
S12391002C457965732072696768742C4579656C6964732C48616E64732C45796573206CE8
S12391206566742C4453392C445331302C445331312C445331322C445331332C4453313432
S12391402C457869F44D6F7574682D4D757374616368652C48656164206C6566742C48650F
S123916061642072696768742C4C6566742061726D2C457965732072696768742C45796582
S12391806C6964732C52696768742061726D2C45796573206C6566742C4453392C44533118
S12391A0302C445331312C445331322C445331332C445331342C457869F44D6F7574682C62
S12391C048656164206C6566742C486561642072696768742C4C6566742061726D2C457971
S12391E065732072696768742C4579656C6964732C52696768742061726D2C4579657320EE
S12392006C6566742C4453392C445331302C445331312C445331322C445331332C44533119
S1239220342C457869F44D6F7574682C48656164206C6566742C486561642072696768745E
S12392402C486561642075702C457965732072696768742C4579656C6964732C52696768B6
S1239260742068616E642C45796573206C6566742C4453392C445331302C445331312C4479
S12392805331322C445331332C445331342C457869F4BD86C4C601BD8C30BD8DE420204486
S12392A06961676E6F73746963732020A0BD8DDD202020202020202020202020202020A0EF
S12392C0C601BD8C30BD8D03CE93D3BD950481112614BD86C45FD762BDF9C5B6180484BF78
S12392E0B718047E81D78103250981082405BD8F7320A281022608BD9F1E25997E967581E9
S12393000B260DBD8D03BD9ECCC603BD8C3020858109260EBD9F1E24037E9295BD9E927E41
S12393209295810A260BBD9F1E2503BD9EAF7E9295810126037EA0E98108261FBD9F1E25D6
S12393401ABD8DE452657365742053797374656DA17EA249C602BD8C302018810C2614BD12
S12393608B485FD762BDF9C5B6180484BFB718047E9292810D262EBD8CE9BD8DE4202042B5
S12393807574746F6E2020746573F4BD8DDD20202050524F472065786974F3BDA5265FBDDF
S12393A0F9C57E9295810E2610BD9F1E24037E9295C601BD8C307E949A810F2606BDA86AC4
S12393C07E929581102609BD9F1EBD95BA7E92957E92D25643522061646A7573742C53659D
S12393E0742052616E646F6D2C436875636B20452E204368656573652C4A61737065722C9D
S12394005061737175616C6C792C4D756E63682C48656C656E2C526573657420537973744B
S1239420656D2C5265736574207265672074617065232C5265736574206C697620746170DD
S123944065232C566965772054617065202327732C416C6C204C6967687473204F6E2C4217
S12394607574746F6E20746573742C4B696E6720656E61626C652C5761726D2D55702C535E
S1239480686F7720547970652C5175697420446961676E6F73746963F3007D042A2727BD1B
S12394A08DE44B696E6720697320456E61626C65E4BD8DDD454E54455220746F206469735F
S12394C061626CE52025BD8DE44B696E672069732044697361626C65E4BD8DDD454E544571
S12394E05220746F20656E61626CE5BD8E954D27FA810D2702200AB6042A84018801B70430
S12395002A7E9295860197A697A7DF122009860197A77F00A6DF127F001618DE467D00A68D
S12395202607BD8CF286802005BD8D0386C018A700186F0118081808188C0580250418CE42
S12395400500DF14A6002A04C601D716812C271E186F00847F18A70118081808188C0580E2
S1239560250418CE05007D001626030820D60886019743186F00186F0118DF46BD8E95275D
S1239580FB8102260A7D001626057C00A720888101262018DE14189C1223E17A00A7DE14E1
S12395A009099C1226037E9517A600812C26F2087E9517810D26C596A739B6045C2714BDFA
S12395C08DE443757272656E743A20434E522020A02012BD8DE443757272656E743A205227
S12395E031322020A0BD8DDD3C456E7465723E20746F20636867AEBD8E9527FB810D260FBD
S1239600B6045C27057F045C20058601B7045C39436875636B2C4A61737065722C5061735A
S12396207175616C6C792C4D756E63682C48656C656E2C4C6967687420312C4C69676874B6
S123964020322C4C6967687420332C53746172204546582C57696E6B2053706F742C476F07
S1239660626F2C436C65617220416C6C20526E642C457869F4BD8DE452616E646F6D202070
S123968020202020202020A0CE9610BD95045F37810D26037E975B810C26217F04017F04E4
S12396A02BBD8DE4416C6C20526E6420436C6561726564A1C664BD8C227E975B81092505C6
S12396C08008335C375F0D594A26FCD712C8FFD713CC2034BD8DB533375D2705B6042B2056
S12396E003B604019412270A18DE46BD8DFD4FEE200918DE46BD8DFD4F66E6CC2034BD8D60
S1239700B5BD8E9527FB8101262233375D270AB6042B9A12B7042B2008B604019A12B7040B
S12397200118DE46BD8DFD4F6EA020A58102262333375D270AB6042B9413B7042B2008B66B
S123974004019413B7040118DE46BD8DFD4F66E67E96D1810D26AA337E9675337E9292CEDD
S1239760000018CE800018E60018083A188C000026F4DF179617BD979B9612C633BD8DB537
S12397809613C634BD8DB59618BD979B9612C635BD8DB59613C636BD8DB53936840F8B3083
S12397A0813923028B0797133284F0444444448B30813923028B07971239BD9D1824037EAF
S12397C09A7F7D0079260BFC0410C30001FD04102009FC0412C30001FD04128678976397BF
S12397E064BDA313BDAADB8601974E97767F00757F0077BD87AED67BCA20C4F7BD87487EF7
S123980085A47F00767F00757F00777F004ED67BCA0CBD8748BDA31EBD86C4BD9C51BD8E42
S1239820957E844DBD9C517F004ED67BCA24C4F7BD8748BD87AEBD8E957E844D7F0078B675
S1239840108A84F9B7108A7D00AF266196628401275BC6FDBD86E7CC0032DD1BCC7530DDB9
S12398601D7F005ABD9B197D00312604965A27197F0031D662C4FED762BDF9C5BDAA13C6D7
S1239880FBBD86E77F005A204BDC1B26D7D662C801D762BDF9C5C4012605BDAA0C2003BD6F
S12398A0AA13CC0032DD1BDC1D27C520B77D007527037E993996628402274E7D00AF260B79
S12398C0FC0424C30001FD04242009FC0422C30001FD0422FC0418C30001FD0418867897BB
S12398E0639764D662C4F7CA02D762BDF9C5BDAA188601974E9775D67BC4DFBD8748BD87D8
S1239900AEBDA313BDAADB2030D662C4F5CA40D762BDF9C5BDAA1D7D00AF2604C601D7B6B3
S1239920BD9C517F004E7F007586019777D67BCA24C4F7BD8748BD87917F00AF7E85A47F74
S12399400077BD9C517F004ED662C4BF7D00752702C4FDD762BDF9C5BDAA1D7F005BBD8728
S1239960AED67BCA20BD87487F00757F00767E9815D67BC4FBBD87487E85A4D67BCA04BD3B
S123998087487E85A4D67BC4F7BD87487E85A47D00772607D67BCA08BD87487E85A4D67B46
S12399A0C4F3BD874839D67BC4DFBD8748BD879139D67BCA20BD8748BD87AE39D67BC4DFB3
S12399C0BD8748BD87AE39D67BCA20BD8748BD879139860197787E85A4CE0E20A600803068
S12399E0C60A3D17C6643DDD17A6018030C6643DD317DD17A6028030C60A3DD317DD174FB6
S1239A00E603C030D317FD029CCE0E20A600813025138139220F088C0E2426F0B60E248129
S1239A20DB26020C390D39BD8DE453657269616C23A0BD8DDD2020202020202020202020BC
S1239A40202020A0C60818CE0E2018A600183C37BD8DB53318385C1808188C0E2426EB39B9
S1239A60860197B5964E977F96629780967B9781967A97829678977DB6108A8406977EC6DD
S1239A80EFBD86E7D67BCA0CC4DFBD8748BD8791BD86C4BD9C51C606BD8C02BD8E95BD9980
S1239AA0A67E81BD7F005C86019779C6FDBD86E7BD8E95CC7530DD1DBD9B19D662C804D74A
S1239AC062BDF9C5F61804C808F718047D005C2612BD8E95810D270BC632BD8C22DC1D277C
S1239AE00220D5D662C4FBD762BDF9C5BDA354C6FBBD86E77E85A47F00757F00767F00779B
S1239B007F00787F00257F00267F004E7F00307F00317F00327F00AF393637964E27179698
S1239B206326107D00642709BD86C4BD9C517F00642003333239B6040184012703BD9B6BF5
S1239B40B6040184022703BD9B99B6040184042703BD9BC7B6040184082703BD9BF5B604A1
S1239B600184102703BD9C23333239183C18DE6518A60081FF27149170250D180818A600CF
S1239B80B71080180818DF6518383918CEB2EB18DF6586FA97707E9B88183C18DE6718A6FF
S1239BA00081FF27149171250D180818A600B71084180818DF6718383918CEB3BD18DF67CE
S1239BC086E697717E9BB6183C18DE6918A60081FF27149172250D180818A600B710881898
S1239BE00818DF6918383918CEB53118DF6986D297727E9BE4183C18DE6B18A60081FF27CC
S1239C00149173250D180818A600B7108C180818DF6B18383918CEB47518DF6B86BE9773FB
S1239C207E9C12183C18DE6D18A60081FF27149174250D180818A600B71090180818DF6DD4
S1239C4018383918CEB5C318DF6D86AA97747E9C4086FA977086E6977186D2977286BE97E9
S1239C607386AA977418CEB2EB18DF6518CEB3BD18DF6718CEB53118DF6918CEB47518DF6D
S1239C806B18CEB5C318DF6D7F109C7F109EB6040184202708B6109C8A19B7109CB604018A
S1239CA084402710B6109C8A44B7109CB6109E8A40B7109EB6040184802708B6109C8AA203
S1239CC0B7109CB6042B84012708B6109A8A80B7109AB6042B84022708B6109E8A04B71066
S1239CE09EB6042B84042708B6109E8A08B7109E39BD8DE420202050726F6772616D2062AA
S1239D00792020A0BD8DDD446176696420205068696C69707365EE3997497F00B8BD8D03CE
S1239D20862AC628BD8DB5CC0BB8DD1BBD9B19964981412704814B2604C601D7B881412789
S1239D4004814F26078601B702982032814B2704815026078602B702982023814C26078643
S1239D6003B702982018815226078604B70298200DDC1B26B78623C629BD8DB5206C7F00D5
S1239D8049862AC629BD8DB57F004ACE0299BD9B19964A27F97F004A843FA700088C029CD0
S1239DA026ECBD9DF524098623C62ABD8DB5203A862AC62ABD8DB5B6029981392615BD8DF0
S1239DC0DD47656E657269632053686F77746170E50C39B602988103270E8104270A9676EA
S1239DE02606BD9E73BD9ECC0C39FC0420C30001FD04200D39B602998139276CCE00A8BDDD
S1239E009B19964A27F97F004AA700088C00AA26EEBD9EFACE02997F0013A6009B1397137A
S1239E20088C029C26F491A82647CE0402B6029881022603CE04053CBDAB5638250786039E
S1239E40B702982023B60299A100251E2702241808B6029AA10025122702240C08B6029BEA
S1239E60A1002506270224000C39B60298810327F70D39CE0402B6029881022603CE0405A1
S1239E80B60299A70008B6029AA70008B6029BA700398630B70402B70403B70404BD8DDD73
S1239EA0526567202320636C6561726564A1398630B70405B70406B70407BD8DDD4C697628
S1239EC0202320636C6561726564A1398652C62BBD8DB5864CC632BD8DB5CE0402C62CA674
S1239EE000BD8DB55C088C040526F4C633A600BD8DB55C088C040826F43996A8BD9F0F486E
S1239F00484848971396A9BD9F0F9B1397A839812F24028630813A25028007803039FC020F
S1239F209C1A830001270C1A8303E825201A83044B221ABD8DE450617373776F72642062B8
S1239F407970617373A0C604BD8C300C39BD8CF2BD8D03BD8DE4436F6465BACE02907F00DB
S1239F601686419715BD8E95810D26119615A70008BD8C9896164C97168105270996154C22
S1239F80815B27DD20DDBD8DDD50737764BACE02888641971686C597159615BD8C86961678
S1239FA0BD8C98BD8E9527FB810D26109616A7000896154C971581CA272820DD8101260FAA
S1239FC096164C9716815B26D08641971620CA810226D096164A9716814026BD865A97165B
S1239FE020B7BDA001250F86DB97ABFC0416C30001FD04160C39FC0414C30001FD04140D21
S123A00039B60290B70281B60291B70283B60292B70284B60293B70280B60294B70282B6B4
S123A020028088138B03B70280B6028188048B12B70281B6028288068B04B70282B60283CF
S123A04088118B07B70283B6028488018B10B70284BDA0AFB6029484179715B60290841776
S123A0609716CE0280A60098159816A700088C028526F2BDA0AFCE028018CE0288A600187A
S123A080A100260A0818088C028526F10C390D395941444441CE028818CEA090A60018A1DE
S123A0A000260A0818088C028D26F10C390D39CE0280A600815B2506801AA700200881415F
S123A0C024048B1AA700088C028526E639BD8CF2BD8DDD4661696C65642120202020202020
S123A0E02020A0C602BD8C3039C601BD8C307F004EC6D3BD8748BD87AEBD8CE9BD8DE4205E
S123A10020205643522061646A7573F4BD8DDD555020746F20636C65617220626974F35F3E
S123A120D762BDF9C5B6180484BFB71804BD8E957F00487F0049BD86C486289763C6FDBDE1
S123A14086E7BDA32E7C00767F0032BD8E95810D26037EA1C486289763BD86A425EDFC0442
S123A1601AC30001FD041ABD86C47C004EC6D3BD8748BD87AE9649814326067F00497F00E4
S123A18048964881C8251FFC029C1A8300012716C6EFBD86E7BD86C47F004E7F0076C60A1B
S123A1A0BD8C307E81D7BD8E9581012610CE108086346F00A70108088C10A025F5810D276A
S123A1C0037EA1757F00767F004EC6DFBD8748BD87917E81D78607B70400CC0E098165260F
S123A1E005C163260139860EB7103B86FFB70E00B6103B8A01B7103BCE1B580926FDB61031
S123A2003B84FEB7103BCE0E0018CEA226C602F7103B18A6001808A700BDA232088C0E0C23
S123A22026EB7F103B3929642A21323A3A3421656371183CC603F7103B18CE1B58180926FB
S123A240FCC602F7103B1838390FCE00106F00088C0E0026F8BD9EAFBD9E927EF80018CEFC
S123A2608003CE000018E6003A1808188C805026F4FF040B390F7F040F860EB7103B86FFA0
S123A280B70E20B6103B8A01B7103BCE1B580926FDB6103B84FE7F103BBDF9D8456E746573
S123A2A0722073657269616C20233AA0CE0E20BDF94524FBBDF96FC602F7103BA700BDA220
S123A2C032088C0E2426E8C602F7103B86DBB70E24BDA2327F103B861EB710357EF8003877
S123A2E03C8C800025020C390D39CE0288C603BDF94524FBA700085A26F5B6028881132607
S123A30010B6028981102609B6028A811426020C390D3936B610928A01B71092323936B6D5
S123A320109284FE20F3964E97197F004E39B610868A15B71086C601BD8C3084EAB7108615
S123A34039B610868A2AB71086C601BD8C3084D5B7108639F61804CA08F7180439F6180412
S123A360C4F7F71804397F004EBD86C47F042ABDF9D8456E7465722073656375726974792D
S123A38020636F6465BABDA2EA24037E8331BDF9D80C0A0D446176652773205365747570A6
S123A3A0205574696C6974790A0D3C4B3E696E6720656E61626C650A0D3C433E6C6561726C
S123A3C02072616E646F6D0A0D3C353E206368617261637465722072616E646F6D0A0D3C51
S123A3E04C3E6976652074617065206E756D62657220636C6561720A0D3C523E6567756C61
S123A40061722074617065206E756D62657220636C6561720A0D3C543E657374206472693B
S123A42076657220626F617264730A0D3C423E756220746573740A0D3C443E65636B20740A
S123A440657374202877697468207461706520696E736572746564290A0D3C373E352520F5
S123A46061646A7573746D656E740A0D3C533E686F772072652D76616C6964207461706569
S123A480730A0D3C4A3E756D7020746F2073797374656D0A8DBDF94524FB814326097F0429
S123A4A0017F042B7EA5148135260DB60401847F8A7FB704017EA514814C2606BD9EAF7E8E
S123A4C0A51481522606BD9E927EA51481542606BDA5657EA51481422606BDA5267EA514EF
S123A4E081442606BDA53C7EA51481372608C6FBBD86E77EA514814A26037EF800814B262E
S123A500067C042A7EA51481532606BDAB7C7EA5147EA4958607BDF96FC601BD8C308607FF
S123A520BDF96F7EA38E5FBDF9C5F6100AC8FFBDF9C5C18026F4C602BD8C3039C6FDBD863C
S123A540E7C606BD8C30C6FBBD86E7C606BD8C30C6FDBD86E7C6F7BD86E7C606BD8C30C6BC
S123A560EFBD86E739BDF9452408811B2604BD86C43986089715BD86C486013616BDF9C5C9
S123A580B618048808B7180432B71080B71084B71088B7108CB71090B71094B71098B71044
S123A5A09CC614BDA6524936D6155AD715BDF99537C62796150C8930BD8DB533325D26BB3B
S123A5C086089715BD86C48601B71082B71086B7108AB7108EB71092B71096B7109AB71095
S123A5E09EC614BDA6524936D6155AD715BDF99537C62796150C8930BD8DB533327D0015A5
S123A60026C7BD86C4CE1080C60086FFA700A70237C61EBDA652338600A700A7025C3CBD1B
S123A620F99537C62732360C8930BD8DB53338080808088C109D25D2CE108086FFA700A74C
S123A64002080808088C109D25F1C606BD8C307EA565364FDD237D002426FB3239302C4367
S123A6606875636B2C4D6F7574682C312C48656164206C6566742C322C4865616420726935
S123A6806768742C322C486561642075702C322C457965732072696768742C312C45796568
S123A6A06C6964732C312C52696768742068616E642C322C45796573206C6566742C312C34
S123A6C0382C48656C656E2C4D6F7574682C312C48656164206C6566742C322C486561642B
S123A6E02072696768742C322C486561642075702C322C457965732072696768742C312C30
S123A7004579656C6964732C312C52696768742068616E642C322C45796573206C65667439
S123A7202C312C362C4D756E63682C4D6F7574682C312C48656164206C6566742C322C485E
S123A7406561642072696768742C322C4C6566742061726D2C322C4579657320726967682E
S123A760742C312C4579656C6964732C312C52696768742061726D2C322C45796573206C76
S123A7806566742C312C322C4A61737065722C4D6F7574682C312C48656164206C6566742B
S123A7A02C322C486561642072696768742C322C486561642075702C322C457965732072A8
S123A7C0696768742C312C4579656C6964732C312C48616E64732C322C45796573206C65E9
S123A7E066742C312C342C5061737175616C6C792C4D6F7574682D4D757374616368652C0A
S123A800312C48656164206C6566742C322C486561642072696768742C322C4C656674202B
S123A82061726D2C322C457965732072696768742C312C4579656C6964732C312C52696773
S123A84068742061726D2C322C45796573206C6566742C312C3CBD86C4CE10808620A70056
S123A860A704A708A70CA7103839BDA32EBD8DE4202020205761726D2D557020A0BD8DDDF3
S123A8804375727461696E73206F70656E696EE7C614BD8C30BDA855C602BD8C30CEA65DBC
S123A8A0C605D712C608D713BDA941BDA94CC602BD8C30BDA95EA60080300808367C004C66
S123A8C03CBD88E538864FC60CBD8DB5866EC60DBD8DB5CC200EBD8DB57A004C3236C66419
S123A8E03DDD23DC2326FCBD8E95810D2605BDA975201081012604327EA8958102260432DA
S123A9007EA9353CBD88E5388666C60DBD8DB58666C60EBD8DB532C6643DDD23DC2326FC02
S123A920BDA8557C004B964B81482587964C813427037EA8A4C602BD8C30BD86C4BDA341C8
S123A94039A6000808974C8640974B39BD8CF2A60008812C270736BD8E703220F239BD8DC4
S123A9600386C0BD8E4BA60008812C270736BD8E703220F239BD8E954D27FA397F0060FC9B
S123A980029C1A830001270C1A8303E82D7D1A83044B2277C640D762BDF9C5C664BD8C223E
S123A9A0BD86C4BD8CE9BD8DE420202020205354554449CFBD8DDD70726F6772616D6D693F
S123A9C06E67206D6F64E5BDA32EBD999EBD99B1CE200018CE00C01809260ABDA9F496609B
S123A9E02629CE2000B610A8840127EBB610A9A7000820DFCE200018CE1080A60018A7002B
S123AA0008180818088C201025F13939CC4837BD8DB539CC203720F7CC420F20F2CC200FBF
S123AA2020ED7F004FCC0001DD1BCE2000B610A8840127F9DC1B0F2603CE2000B610A9A73E
S123AA40000EBDF96F087F004FCC0001DD1B8C202326DACE20007F00B7A6009BB797B708E3
S123AA608C202225F496B788FFA100CE2000A6202B037EAA22A600B7108008A600B7108266
S123AA8008A600B7108408A600B7108608A600B7108808A600B7108A08A600B7108C08A613
S123AAA000B7108E08A600B7109008A600B7109208A6008A80B7109408A6008A01B7109688
S123AAC008A600B7109808A600B7109A08A600B7109C08A600B7109E7EAA227F10987F1032
S123AAE09A7F109C7F109E39CE042CC6105D2712A6008130250D813922090808088C04594E
S123AB0023EB395A3CA603A700088C045C25F686FFB704593820D6CE042C86FFA700088C70
S123AB20045C25F839CE042CA60081302517813922130808088C045C25EE86FFB7042CBD9B
S123AB40AAE8CE045939B60299A700B6029AA701B6029BA70239CE042CB60299A1002610AE
S123AB60B6029AA1012609B6029BA1022602200A0808088C045C25E10D390C39CE042CA62D
S123AB80008130251E8139221ABDF96F08A600BDF96F08A600BDF96F088620BDF96F8C0499
S123ABA05C25DC860DBDF96F860ABDF96F397F004ACC0064DD23964A2608BD9B19DC2326F1
S123ABC0F53981312604BDAB173920F5DC10C30271FD1016DD108680B710237D0078271C40
S123ABE0DC25C30001DD251A8300C8260F7F00257F0026D662C808D762BDF9C57C006F966A
S123AC006F812825427F006F7D006327037A006396704A9770260486FA977096714A97717B
S123AC20260486E6977196724A9772260486D2977296734A9773260486BE977396744A97CC
S123AC4074260486AA977496274C9727810C23097F0027BD8EC6BD8F1296432755DE44A665
S123AC60002723B71000B6100284F3B7100284FDB710028A02B7100208088C05802503CE01
S123AC800500DF44202CA6012725B71000B6100284FB8A08B7100284FDB710028A02B71043
S123ACA00208088C05802503CE0500DF4420037F0043964F4C974F810426307F004FDC1BB3
S123ACC02705830001DD1BDC1D2705830001DD1DDC1F2705830001DD1FDC212705830001D1
S123ACE0DD21DC232705830001DD2396B0880197B02718BF013CBE013EDC108301F4FD10E4
S123AD00188640B7102386C0B710223B8640B71023BF013EBE013C8680B710223B7D042A7F
S123AD20273596B626033F20F47F00B6C60437CEAD3CBD8A1A3F335A26F420E1533100FC36
S123AD40029C1A830001270C1A8303E82D091A83044B22033F20C67F00B3BDAD7EBDADA068
S123AD6025BBC60ABDAE13BDADAE25B1C614BDAE13BDADB625A7BDADB80D25A120F8CEAEE6
S123AD801EBD8A1AC61EBDAE13CEAE22BD8A1AC61EBDAE13CEAE27BD8A1AC61EBDAE1339CE
S123ADA0BDB1DD25FBBDB24F52494E470039CEAE2CBD8A1A0C390C39BDB1D2BDAE31860107
S123ADC097B3BDB1DDBDB27136BDB2C03281012608CEB295BD8A1A20318102260081032699
S123ADE000810426008105260081062600810726008108260081092600810A2600810B26DB
S123AE0009CEB2AABD8A1A7EAE0AC614BDAE137F00B339CE00203F0926FC5A26F6392B2B44
S123AE202B004154480D0041545A0D004154410D00CEAE38BD8A1A395E3031303153657282
S123AE4069616C20233A5E3031343023303030305E303131317E340E205E303134317C0490
S123AE60285E3033303143555252454E545E30333430484953544F52595E3035303153682B
S123AE806F77205374617475733A5E30353430546F74616C2023207265672E2073686F770F
S123AEA0733A5E3036303152616E646F6D205374617475733A5E303537307C04105E3036FF
S123AEC03430546F74616C2023206C6976652073686F77733A5E3037303143757272656ED0
S123AEE07420526567205461706520233A5E303637307C04125E303733307E3304025E304B
S123AF00373430546F74616C2023206661696C6564207073776420617474656D7074733A1C
S123AF205E3038303143757272656E74204C697665205461706520233A5E303737307C0480
S123AF40145E303833307E3304055E30383430546F74616C20232073756363657373667591
S123AF606C20707377643A5E3039303143757272656E742056657273696F6E20233A5E302D
S123AF803837307C04165E303933304004005E30393430546F74616C202320626461797365
S123AFA020706C617965643A5E31303430546F74616C2023205643522061646A7573747321
S123AFC03A5E303937307C04185E313037307C041A5E31313430546F74616C20232072654B
S123AFE06D6F74652061636365737365733A5E31323430546F74616C202320616363657369
S123B0007320617474656D7074733A5E313137307C041C5E313237307C041E5E313334303E
S123B020546F74616C20232072656A65637465642073686F7774617065733A5E3134343000
S123B040546F74616C20232053686F72742062646179733A5E313337307C04205E31343745
S123B060307C04225E31353430546F74616C2023205265672062646179733A5E31363430B7
S123B080546F74616C2023207265736574732D707772207570733A5E313537307C04245E4A
S123B0A0313637307C04265E3138303146554E4354494F4E535E3138323353656C656374AB
S123B0C02046756E6374696F6E3A5E32303031312E436C65617220726E6420656E61626CDF
S123B0E065735E3230323820362E536574206C6F63206E616D652D235E3230353431312E72
S123B100446961676E6F73746963735E32313031322E53657420726E6420656E61626C651A
S123B120735E3231323820372E5365742054696D655E3231353431322E5E32323031332ECE
S123B14053657420726567207461706520235E3232323820382E446973626C2D656E626CE6
S123B1602073686F775E3232353431332E5E32333031342E536574206C6976207461706546
S123B18020235E3233323820392E55706C6F61642070726F6772616D5E3233353431342E78
S123B1A05E32343031352E526573657420686973746F72795E3234323831302E4465627591
S123B1C0676765725E3234353431352E5E3138343000CEB1D87E8A1A1B5B324A00CE05A0FC
S123B1E0CC0000FD029EFC029EC30001FD029E1A830FA02428BDB22325043F20E939A7006A
S123B20008810D26022018811B260220107D00B32703BD8B3BCC0000FD029E20C90D396F5C
S123B220000C39B6180D44250B4FB7180D8630B7180D0C398601B7180D8670B5180D260516
S123B2400DB6180F39B6180F8630B7180C0C393818CE05A0A60027110818A1002604180868
S123B26020F2A60027070820F9083C0C39083C0D39CE05A0A60008810D26F90909A6000921
S123B280803097B28C059F270BA600098030C60A3D179BB239596F7520686176652073654D
S123B2A06C656374656420233100596F7520686176652073656C6563746564202331310096
S123B2C0CEB2C7BD8A1A395E32303031255E32313031255E32323031255E32333031255E0D
S123B2E032343031255E3230303100FA20FA20F622F520F520F322F220E522E522E220D2BE
S123B30020BE00BC22BB30B932B932B730B632B530B432B432B320B320B1A0B1A0B0A2AFE3
S123B320A0AFA6AEA0AEA6ADA4ACA0ACA0ABA0AAA0AAA0A280A0A0A0A08D808AA07E807B58
S123B340A079A478A077A476A075A474A073A472A071A470A06FA46EA06DA46CA0698069D8
S123B3608067A05E20582457205720562455205424542453205224522450204F244E204D7E
S123B380244C204C204B244A20492049004820472047204620452445244420422042203755
S123B3A00435202E042E042D20232421201724130011241030073406300530FFFFD722D5C2
S123B3C020C922C720C424C320C224C120BF24BF24BE20BD24BC20BB24BA20B920B824B75F
S123B3E020B400B400B220A920A320A220A120A020A0209F209F209E209D249D249B209A4D
S123B40024992098209724972495209520940094009320920092009120902090208F208D67
S123B420208D2081007F2079007900782076206B0069205E005C205B3052105130503050EF
S123B440304F204E204E204D2046A045A03DA03DA039202A0028201E001C221C221B201AC1
S123B4602219201822182216201522152214A013A211A0FFFFBE00BC22BB30B932B932B729
S123B48030B632B530B432B432B320B320B1A0B1A0B0A2AFA0AFA6AEA0AEA6ADA4ACA0ACB6
S123B4A0A0ABA0AAA0AAA0A280A0A0A0A08D808AA07E807BA079A478A077A476A075A47424
S123B4C0A073A472A071A470A06FA46EA06DA46CA06980698067A05E205824572057205625
S123B4E02455205424542453205224522450204F244E204D244C204C204B244A204920493B
S123B50000482047204720462045244524442042204220370435202E042E042D20232421E8
S123B520201724130011241030073406300530FFFFCD20CC20CB20CB20CA00C920C920C86D
S123B54020C1A0C0A0B8A0B820B420A600A420990097229722962095229420932293229171
S123B56020902090208DA08CA07DA27DA27BA07BA079A279A277A077A0768075A06E206716
S123B5802466206524642063246324612060245F205E205D245C205B245A2059245820569F
S123B5A020550454005324522052204F244F244E304D304710453035303310313031301D2B
S123B5C020FFFFA920A320A220A120A020A0209F209F209E209D249D249B209A2499209832
S123B5E0209724972495209520940094009320920092009120902090208F208D208D2081AD
S123B600007F2079007900782076206B0069205E005C205B3052105130503050304F204E6E
S123B620204E204D2046A045A03DA03DA039202A0028201E001C221C221B201A2219201859
S112B64022182216201522152214A013A211A0DD
S123F780570B00000000080000002000000080000000000000040000001000000000000047
S123F7A04012200980240200401220098024040000000000000000000000000008000000F9
S104F7C00044
S123F8000F8603B710248680B7102286FEB71035960781DB26067F10357F00078E01FF866F
S123F820A5B7105D8601B7105F8600B7105E86F0B7105C7F00008630B71805B7180786FFA6
S123F840B718068678B718048634B71805B71807C6FFBDF9C52013094A01100C180D00048E
S123F860440E6305680B5603C1FFCEF857A60081FF2706B7180D0820F48600B7102C860CCB
S123F880B7102D8631B7102BCE0100863BA7000808088C013C25F6C6F0F71804867E97032D
S123F8A0CE0000E6008655A700A100261949A700A1002612E700088C04002603CE20008C43
S123F8C0800026DF200486019700C601BDF995B61035260FB63000817E2608C60EBDF995E9
S123F8E07E3000CEF000010109270BBDF94524F6811B272920F0B68000817E260BC60ABD57
S123F900F995BD80000F20EEC610BDF995BDF9D84D494E492D4D4FCEC610BDF9957F0005E3
S123F9207F00047F00027F0006BDF9D80D0ABE3644444444BDF93832840F8A30813A250242
S123F9408B077EF96FB6102E852026090C39B6102E852027F9B6102E850226098508260503
S123F960B6102F0D39B6102F862FBDF96F20DF810D27022007860DBDF97C860AF6102EC54E
S123F9804027F9B7102F39BDF94E817A22068161250282203936C1112502C610CEF9B43A0F
S123F9A0A600B71806B618048A20B7180484DFB718043239C0F9A4B0999282F8809088830B
S123F9C0C6A1868EFF36F71806B6180484EFB718048A10B718043239183818A60027092B05
S11AF9E00CBDF97C180820F21808183C39847FBDF97C20F439393BF9
S123FFA07EF9F57EF9F57EF9F57EF92F7EF9D87EF9457EF96F7EF9087EF9957EF9C5FFFF9D
S123FFC0F9F6F9F6F9F6F9F6F9F6F9F6F9F6F9F6F9F6F9F6F9F60100010301060109F9F6D3
S123FFE0010C010F011201150118011B011E012101240127012A012D013001330136F80007
S9030000FC
